0        04EXTRATO C/C    XXXXX XXXXX XXXXXXXX                              237BRADESCO S/A   04022201600BPI                                                        04022021            0123404237000001
10201234567000890123400000705000000000007000889                                 010221000000000000000100C                                                           01022021              87604237000002
1020123456700089012340000070500000000000712131158TRANSF CC PARA CC PJ     368402020221000000000019973514C                                             0368402       02022021             087604237000003
1020123456700089012340000070500000000000712062571RESGATE INVEST FACIL     629501020221000000000000019271C                                             2629501       02022021             087604237000004
1020123456700089012340000070500000000000712062571RESGATE INVEST FACIL     660230020221000000000000028202C                                             4660230       02022021             087604237000005
1020123456700089012340000070500000000000711050036TARIFA REGISTRO COBRANCA 042232020221000000000000002249DNA BAIXA POR PAGAMENTO  00000013             2042232  *    02022021             087604237000006
1020123456700089012340000070500000000000711050036TARIFA REGISTRO COBRANCA 042232020221000000000000008996DNA BAIXA POR COMPENSACAO00000052             2042232  *    02022021             087604237000007
1020123456700089012340000070500000000000711020144DESPESAS DE PROTESTO     042232020221000000000000000632D                                             2042232  *    02022021             087604237000008
1020123456700089012340000070500000000000711050161TARIFA AUTORIZ COBRANCA  042232020221000000000000001275DTR TIT PAGO CARTORIO    00000003             2042232  *    02022021             087604237000009
1020123456700089012340000070500000000000711050161TARIFA AUTORIZ COBRANCA  042232020221000000000000005700DINSTRUCAO DE PROTESTO   00000012             2042232  *    02022021             087604237000010
1020123456700089012340000070500000000000711201632TED D CC HBANK*          124213020221000000000020000000DDEST. HALEX ISTAR INDUSTRI                   6124213       02022021             087604237000011
1020123456700089012340000070500000000000711051963DOC/TED INTERNET         124213020221000000000000001105DTED INTERNET                                 6124213  *    02022021             087604237000012
1020123456700089012340000070500000000000711102101IOF S/ UTILIZACAO LIMITE 060857020221000000000000001030D                                             6060857  *    02022021             087604237000013
102012345670008901234000007050000000000072                                      020221000000000000000100CF000000000000000100C                                       02022021              87604237000014
90000100001300000000200209870000000020020987                                                                                                                                              87604237000015

